:1000000065C000007AC0000078C0000076C0000023
:1000100074C0000072C0000070C000006EC000001C
:100020006CC000006AC0000068C0000066C000002C
:1000300064C0000062C0000060C000005EC000003C
:100040005CC000005AC0000058C0000056C000004C
:1000500054C0000052C0000050C000004EC000005C
:100060004CC000004AC0000048C0000046C000006C
:1000700044C0000042C0000040C000003EC000007C
:100080003CC000003AC0000038C0000036C000008C
:1000900034C0000032C0000030C000002EC000009C
:1000A0002CC000002AC0000028C0000026C00000AC
:1000B00024C0000022C0000020C000001EC00000BC
:1000C0001CC000001AC0000018C0000011241FBE90
:1000D000CFEFD1E2DEBFCDBF00E00CBF12E0A0E069
:1000E000B2E0E2E5F3E000E00BBF02C007900D9242
:1000F000AC34B107D9F7D4D02AC182CF149A00C04A
:1001000014980895CF93C82F662311F0169A01C052
:10011000169815980B9A0A9A099A089A10981198A5
:1001200012981398CC230CF4109AC6FD119AC5FDB1
:10013000129AC4FD139AE2DF10981198129813983E
:10014000C3FD109AC2FD119AC1FD129AC0FD139A07
:10015000D5DF139A129A119A109ACF910895882395
:1001600011F0169A01C01698159A0B980A980998DA
:100170000898149A00C0039B02C080E101C080E08F
:10018000029980620199806400998068149800C087
:10019000149A00C003998160029982600199846079
:1001A000009988601498089580E0D9DF8823E4F3EB
:1001B00088E090E00197F1F780E0D1CF0895CF93E8
:1001C000C82FF2DF60E08C2F9DDFCF910895611181
:1001D00003C08058F4CF08958054F1CF089581E092
:1001E000EECF0895CF93C82FDFDFCA3041F48034BB
:1001F00010F080E001C080E48058E1DF0FC0803162
:1002000021F460E080EC7EDF05C0803519F460E009
:1002100080E878DFC9DF61E08C2F74DFCF9108952B
:10022000CF93DF93EC012196FC018081882321F09C
:10023000D9DF89918111FCCFDF91CF9108951F9370
:10024000CF93DF93182F0E9A0D9A0C9A0B9A0A9A55
:10025000099A089A80E09AEF0197F1F7129A139A97
:100260004DDF80E09EE40197F1F748DFC0E0D1E088
:10027000CE010197F1F742DFCE010197F1F7139814
:100280003DDF2197F1F788E29ADF88E098DFA7DF6A
:1002900086E095DF812F93DFDF91CF911F91089545
:1002A000CF93DF93CDB7DEB7CC55D1090FB6F89415
:1002B000DEBF0FBECDBF8CE4E0E0F2E0DE011196C0
:1002C00001900D928A95E1F7FE01E35BFF4F80E11B
:1002D000DF011D928A95E9F78CE0B1DF80DF60E0F5
:1002E0008AE075DFCE0101969BDFE12CF12C8E01B7
:1002F0000F5F1F4FD801AE0DBF1DFE01E35BFF4F27
:100300009F01215F3F4F8D918193E217F307D9F74A
:10031000BFEFEB1AFB0ACE01835B9F4F81DF2FEF0C
:1003200083EC99E0215080409040E1F700C000004C
:1003300056DFF80101900020E9F7CF01801B910BF7
:1003400041978E159F05B0F6E12CF12CD3CFF89490
:02035000FFCFDD
:1003520048656C6C6F20576F726C64212044617326
:10036200206973742065696E2073656565656568CB
:1003720072206C616E67657220546578742066FC29
:10038200722065696E203136207374656C6C696702
:0C039200657320646973706C6179210050
:00000001FF
