:1000000065C000006DC000006BC0000069C000004A
:1000100067C0000065C0000063C0000061C0000050
:100020005FC000005DC000005BC0000059C0000060
:1000300057C0000055C0000053C0000051C0000070
:100040004FC000004DC000004BC0000049C0000080
:1000500047C0000045C0000043C0000041C0000090
:100060003FC000003DC000003BC0000039C00000A0
:1000700037C0000035C0000033C0000031C00000B0
:100080002FC000002DC000002BC0000029C00000C0
:1000900027C0000025C0000023C0000021C00000D0
:1000A0001FC000001DC000001BC0000019C00000E0
:1000B00017C0000015C0000013C0000011C00000F0
:1000C0000FC000000DC000000BC0000011241FBEB7
:1000D000CFEFD1E2DEBFCDBF00E00CBF39D18DC183
:1000E0008FCF149A00C014980895CF93C82F662319
:1000F00011F0169A01C0169815980B9A0A9A099A47
:10010000089A1098119812981398CC230CF4109A0E
:10011000C6FD119AC5FD129AC4FD139AE2DF10982C
:10012000119812981398C3FD109AC2FD119AC1FD3F
:10013000129AC0FD139AD5DF139A129A119A109A47
:10014000CF910895882311F0169A01C01698159A38
:100150000B980A9809980898149A00C0039B02C04B
:1001600080E101C080E00299806201998064009979
:100170008068149800C0149A00C0039981600299A5
:10018000826001998460009988601498089580E0E5
:10019000D9DF8823E4F388E090E00197F1F780E06D
:1001A000D1CF0895CF93C82FF2DF60E08C2F9DDF71
:1001B000CF91089581E0F6CF0895CF93C82FE7DF60
:1001C000CA3041F4803410F080E001C080E48058EF
:1001D000E9DF0FC0803121F460E080EC86DF05C0EC
:1001E000803519F460E080E880DFD1DF61E08C2F9A
:1001F0007CDFCF910895CF93DF93EC012196FC0132
:100200008081882321F0D9DF89918111FCCFDF9192
:10021000CF9108951F93CF93DF93182F0E9A0D9AC5
:100220000C9A0B9A0A9A099A089A80E09AEF019719
:10023000F1F7129A139A55DF80E09EE40197F1F7E7
:1002400050DFC0E0D1E0CE010197F1F74ADFCE01E7
:100250000197F1F7139845DF2197F1F788E2A2DFC4
:1002600088E0A0DFA7DF86E09DDF812F9BDFDF91A5
:10027000CF911F91089580EF87B990E728E638E580
:1002800048E350E898B96FEF71EE84E06150704038
:100290008040E1F700C0000086B18637D9F186B111
:1002A0008537D9F186B18337D9F128B9EFE9FFE075
:1002B0003197F1F700C0000086B18E36A1F186B10A
:1002C0008D36A1F186B18B36A1F138B9EFE9FFE0A7
:1002D0003197F1F700C0000086B18E3569F186B123
:1002E0008D3569F186B18B3569F148B9EFE9FFE0E9
:1002F0003197F1F700C0000086B18D3331F158B964
:10030000FFEF69EF70E0F15060407040E1F700C02E
:100310000000B8CF81E090E0089582E090E0089579
:1003200083E090E0089584E090E0089585E090E017
:10033000089586E090E0089587E090E0089588E0D1
:1003400090E0089589E090E0089580E090E00895BD
:10035000CF93DF93CDB7DEB7A0970FB6F894DEBF8B
:100360000FBECDBF8CE056DF86DF4AE050E0BE0115
:100370006F5F7F4F05D01EDFCE0101963CDFF4CFCB
:100380004532510518F4423008F004C0FB011082D8
:10039000CB010895BB274A3031F4992322F4BDE202
:1003A000909581959F4F01C0BB27FB015527AA2738
:1003B000880F991FAA1FA41710F0A41B83955051F2
:1003C000B9F7A05DAA3308F0A95DA193009779F76A
:1003D000B111B1931192CB0100C0DC01FC01672F78
:1003E00071917723E1F7329704C07C916D9370830C
:0E03F0006291AE17BF07C8F30895F894FFCFCF
:00000001FF
